:100000000222E0C297122A11D297220229AAEFB443
:1000100003037F002274B02FF582E43400F583E0FF
:02002000FF22BD
:10002300022B8975C78075F50C75C5028FC4EEF573
:0F003300C3AF058FC275C65A75C6A500022DFC56
:10004300022A9B02038EE86480F8E933E8336011E7
:100053000460F0ED33EC337009E8FCE9FDEAFEEBF4
:10006300FF220460DED3EB9FEA9EE99DE8C2E78CA2
:10007300F0C2F795F0400CE8CCF8E9CDF9EACEFAF6
:10008300EBCFFB12035985D0F05804700320D5B38E
:10009300E80470075002B2D502039892D5EC0460CD
:1000A300F7E4CCC0E0C398F8603B94186008400DB7
:1000B300D0E0FB020370E4FBFAC9FC8028E830E4DB
:1000C30006E4C9FBE4CAFCE830E305E4C9CACBFC97
:1000D300E854076010F8C3E913F9EA13FAEB13FBCA
:1000E300EC13FCD8F130F52FC3E49CFCEF9BFFEE3F
:1000F3009AFEED99FDD0E0FBEF4E4D4C701222DBE2
:1001030003020395EC2CFCEF33FFEE33FEED33FDDE
:10011300ED30E7EB020370EF2BFFEE3AFEED39FD16
:10012300D0E0FB50130BBB0003020398ED13FDEE6D
:1001330013FEEF13FFEC13FC020370EC4D6011E8A8
:10014300497017ED33EC3304600DE4FCFFFEFD2230
:10015300E933E8330470F802038E1203595804603C
:1001630009E4CC248150062850090203982840034F
:10017300020395C0E0EB4A7044B98006D0E0FB026D
:100183000384EF4E701CBD8008EBFFEAFEE9FD809F
:10019300EBE98DF0A4FEE5F0020227E9CDF9EAFED2
:1001A300EBFFEF89F0A4FCE5F0CE89F0A42EFFE489
:1001B30035F0CD89F0A42DFEE435F08067EF4E7065
:1001C30005BD80D780C3EF8BF0A4ACF0EE8BF0A419
:1001D3002CFCE435F0F8EF8AF0A42CE5F038FCE4CD
:1001E30033CB8DF0A42CFCE5F03BF8EE8AF0A42C85
:1001F300FCE5F038F8E433CF89F0A42CFCE5F038C3
:10020300CF3400CE89F0A42FFFE5F03EFEE433C9DE
:100213008DF0A42EFEE5F039CD8AF0A42FFFE5F092
:100223003EFEE43DFD33D0E0FB50070BBB000F0265
:100233000398EC2CFCEF33FFEE33FEED33FD0203AA
:1002430070020398EC5D046005E85904700302032F
:100253008E120359580460F6EC4860F2EC7004FD0A
:10026300FEFF22C860DB2481C85009C39860025096
:10027300060203959850CAF582E9294B4A7005ABEB
:100283008202038475F0007C1A7880C3EF9BEE9A98
:10029300ED99400DC3EF9BFFEE9AFEED99FDE84209
:1002A300F0DC23ACF0D0E0FFD0E0FED0E0FDAB8289
:1002B30020E7101BEB60BAEC2CFCEF33FFEE33FEB0
:1002C300ED33FD020370E803F830E705C0F075F085
:1002D30000EF2FFFEE33FEED33FD40B830E7C28071
:1002E300AA75F020800E75F010800575F0087D006A
:1002F3007E007F003392D530D5031208D2EC334011
:1003030010EF33FFEE33FEED33FDEC33FCD5F0EDB0
:1003130022E5F0247EA2D513CC92E7CDCEFF22EDC9
:10032300D2E7CD33EC3392D524814006E4FFFEFDC2
:10033300FC22FCE4CFCECDCC24E0501174FF80ED41
:10034300C3CC13CCCD13CDCE13CECF13CF0470F0CB
:1003530030D5DE0208D2E9D2E7C933E833F892D5C3
:10036300EDD2E7CD33EC33FC5002B2D522EC30E7CB
:10037300100FBF000C0EBE00080DBD00040BEB6098
:1003830014A2D5EB13FCED92E7FD2274FFFCFDFEF6
:10039300FF22E480F8A2D574FF13FC7D80E480EF94
:1003A300C0E0EFFBEEFAEDF9ECF812013ED0E0F518
:1003B300F0EFFBEEFAEDF9ECF8120907A3A3A3A300
:1003C300E8C0E0E9C0E0EAC0E0EBC0E0C0F0120141
:1003D3003E120917A3A3A3A312004DD0F0D0E0FB54
:1003E300D0E0FAD0E0F9D0E0F8D5F0D422F920E754
:1003F3002824F950037907E4F42402FB18DBFDE613
:1004030024FB5014E9600DE4F618E604F6B40A0878
:10041300E4F6D9F57401F60A22C2D522ED33EC33A2
:1004230092D5FA602AB4FF33EDC2E77BFF60067A08
:10043300047944E4227A04794D20D5047A04794876
:10044300224E614E002B494E46002D494E4600E494
:100453007A08F608DAFC7B00740722E8C0E0ECC0F7
:10046300E0EDC0E0EEC0E0EFC0E0EA75F010A4CA32
:10047300ABF075F04DA42BFBE435F0FCEA2410FA45
:10048300EB34C5FBEC34D9FCEDC2E7FF75F056A4A1
:10049300F42411C5F0F434C58FF0A42AE5F03BE44D
:1004A3003CF620E714120552D0E0FFD0E0FED0E086
:1004B300FDD0E0FC1202478014F404120552D0E090
:1004C300FFD0E0FED0E0FDD0E0FC12013ED0E0F82A
:1004D300E6FAEDD2E7CD33EC332482FBE4C3CF332A
:1004E300CFCE33CECD33CD33DBF37B0775F00A8428
:1004F3006004F6081B0AE5F0F6088FF0740AA4FFFF
:10050300ACF08EF0740AA42CFEACF050010C8DF00C
:10051300740AA42CFDE435F0F608DBDE7407223FF1
:100523008000004120000042C80000447A000046D9
:100533001C400047C35000497424004B1896804C5C
:10054300BEBC205A0E1BCA6753C21C749DC5AEFBAA
:1005530060065407601C2323120580EB543860099E
:1005630012056C12057B12013EECF8EDF9EEFAEF81
:10057300CB22EB12057B80F1543803241C90052217
:10058300FE93FC0EEE93FD0EEE930ECE93FF22BB75
:10059300010689828A83E0225002E722BBFE02E33E
:1005A3002289828A83E49322BB010CE58229F582A6
:1005B300E5833AF583E0225006E92582F8E622BB7B
:1005C300FE06E92582F8E222E58229F582E5833AEF
:1005D300F583E49322BB010FF8E58229F582E583D5
:1005E3003AF583E028F0225009C58229F8E58226EE
:1005F300F622BBFE09C58229F8E22582F222F8EA37
:100603002583F583E9932822BB010689828A83F037
:10061300225002F722BBFE01F322F8BB010DE58253
:1006230029F582E5833AF583E8F0225006E925822D
:10063300C8F622BBFE05E92582C8F222EF8DF0A49D
:10064300A8F0CF8CF0A428CE8DF0A42EFE22BC00FF
:100653000BBE0029EF8DF084FFADF022E4CCF875DA
:10066300F008EF2FFFEE33FEEC33FCEE9DEC9840E9
:1006730005FCEE9DFE0FD5F0E9E4CEFD22EDF8F585
:10068300F0EE8420D21CFEADF075F008EF2FFFEDE5
:1006930033FD4007985006D5F0F222C398FD0FD5DD
:1006A300F0EA22C2D5EC30E709B2D5E4C39DFDE4FC
:1006B3009CFCEE30E715B2D5E4C39FFFE49EFE1227
:1006C3000651C3E49DFDE49CFC800312065130D522
:1006D30007C3E49FFFE49EFE22C5F0F8A3E028F0E1
:1006E300C5F0F8E582158270021583E038F022A385
:1006F300F8E0C5F025F0F0E582158270021583E07D
:10070300C838F0E822BB010A89828A83E0F5F0A3A6
:10071300E022500687F009E71922BBFE07E3F5F054
:1007230009E3192289828A83E493F5F07401932201
:10073300BB0110E58229F582E5833AF583E0F5F004
:10074300A3E0225009E92582F886F008E622BBFEE1
:100753000AE92582F8E2F5F008E222E5832AF58327
:10076300E993F5F0A3E99322BB010DC58229C58264
:10077300C5833AC5830206DC5011C58229F808E512
:10078300F026F618F5F0E58236F622BBFE11C58297
:1007930029F808E225F0F5F0F218E23582F222F8A2
:1007A300E58229F582E5832AF58374019325F0F523
:1007B300F0E4933822BB010A89828A83F0E5F0A32F
:1007C300F0225006F709A7F01922BBFE06F3E5F065
:1007D30009F31922F8BB0111E58229F582E5833A71
:1007E300F583E8F0E5F0A3F0225009E92582C8F685
:1007F30008A6F022BBFE09E92582C8F2E5F008F25B
:100803002275F008758200EF2FFFEE33FECD33CD56
:10081300CC33CCC58233C5829BED9AEC99E58298A3
:10082300400CF582EE9BFEED9AFDEC99FC0FD5F0A2
:10083300D6E4CEFBE4CDFAE4CCF9A88222B800C119
:10084300B90059BA002DEC8BF084CFCECDFCE5F086
:10085300CBF97818EF2FFFEE33FEED33FDEC33FCCD
:10086300EB33FB10D703994004EB99FB0FD8E5E476
:10087300F9FA227818EF2FFFEE33FEED33FDEC3358
:10088300FCC933C910D7059BE99A4007EC9BFCE9E7
:100893009AF90FD8E0E4C9FAE4CCFB2275F010EF23
:1008A3002FFFEE33FEED33FDCC33CCC833C810D766
:1008B300079BEC9AE899400AED9BFDEC9AFCE899BA
:1008C300F80FD5F0DAE4CDFBE4CCFAE4C8F922C39F
:1008D300E49FFFE49EFEE49DFDE49CFC22EB9FF578
:1008E300F0EA9E42F0E99D42F0EC6480C86480988F
:1008F30045F022EB9FF5F0EA9E42F0E99D42F0E8D5
:100903009C45F022E493FC740193FD740293FE74FE
:100913000393FF22E493F8740193F9740293FA7436
:100923000393FB22ECF0A3EDF0A3EEF0A3EFF02290
:10093300ECF208EDF208EEF208EFF222A8828583CA
:10094300F0D083D0821209561209561209561209A1
:1009530056E473E493A3C583C5F0C583C8C582C8B1
:10096300F0A3C583C5F0C583C8C582C822D083D090
:1009730082E493F208740193F208740293F2087408
:100983000393F2740473FAE6FB0808E6F925F0F61C
:1009930018E6CA3AF622D083D082F8E49370127430
:1009A3000193700DA3A393F8740193F5828883E4F4
:1009B300737402936860EFA3A3A380DF8A838982A1
:1009C300E473EF4E6012EF60010EEDBB010B898201
:1009D3008A83F0A3DFFCDEFA2289F05007F709DFF0
:1009E300FCA9F022BBFEFCF309DFFCA9F022E53FE2
:1009F300242BF8E6053F227828300702782BE4758C
:100A0300F0011209890205922000EB7F2ED20080AB
:100A130018EF540F2490D43440D4FF30040BEF2448
:100A2300BFB41A0050032461FFE54060021540057E
:100A330043E5437002054230070D7828E475F00161
:100A4300120989EF02060B022B3E7403D2078003BF
:100A5300E4C207F53F8B288A29892AE4F540F54249
:100A6300F543E54060077F20120A2C80F57541FFAE
:100A7300C201C200C202C203C205C206C2081209F1
:100A8300FAFF700D3007057F00120A3DAF43AE42F7
:100A930022B4255FC2D5C2041209FAFF24D0B40AD6
:100AA30000501A75F00A784030D50508B6FF0106E4
:100AB300C6A426F620D5047002D20380D924CFB46D
:100AC3001A00EF5004C2E5D204020D2AD20180C6F7
:100AD300D20080C0D20280BCD2D580BAD20580B405
:100AE3007F20120A2C2002077401B5400040F11246
:100AF30009F1FF120A2C020A65D208D20680951268
:100B030009F1FB1209F1FA1209F1F94A4B7006795E
:100B1300217A0E7BFF20022EE540602A7E008E8222
:100B23007583001205AB60060EEE654170F0C2D509
:100B3300EBC0E0EAC0E0E9C0E0EE120D8AD0E0F9D4
:100B4300D0E0FAD0E0FB120592FF60AAEBC0E0EA26
:100B5300C0E0E9C0E0120A2CD0E02401F9D0E0346F
:100B630000FAD0E0FBE5410460DCD541D98087D2AF
:100B73000280A2120D6D60F7E5417001041203F0CB
:100B8300A941600DE541600914F541120E14EF60AF
:100B9300F3EA30E702F404C3995077EAF4254104F9
:100BA30030E701E404F541800D120D6D60C1EA05E3
:100BB3004125411203F0EA783EF630E701E425418E
:100BC30004D5410420050114120D8AE4C0E0120E7D
:100BD30014783EE6601320E70714F6120A14802205
:100BE30004F6D0E014C0E07F00120A14E541600768
:100BF300120A0B1541800B300503120A0BD0E002D9
:100C03000A65D0E00480C5120D6D60A0E5410412B1
:100C130003F0783EEAF6E54120050260010424046E
:100C2300120D8A74FF04C0E0120E14120A14E54177
:100C33002005026003120A0BD0E0B541E87F45129C
:100C43000A1E783EE67F2B30E7047F2DF404C0E0D4
:100C5300120A2CD0E075F00A84C0F0120A15D0E015
:100C6300120A15020A65791080027908C206C208C1
:100C73008008D2D5790A8004790AC2D5E541047087
:100C830002F541E4FAFDFEFF1209F1FC7B082001A5
:100C9300131209F1FD7B1030000A1209F1FE12094B
:100CA300F1FF7B20EC3382D592D55013C3E430009F
:100CB300069FFFE49EFEE42001039DFDE49CFCE40B
:100CC300CBF8C201EC700CCFCECDCCE824F8F87091
:100CD300F38017C3EF33FFEE33FEED33FDEC33FC4C
:100CE300EB33FB994002FB0FD8E9EB300105F8D059
:100CF300E0C448B201C0E00AEC4D4E4F78207B00BF
:100D030070C2EAB5410040BCC0E0120D8CD0F0D0F7
:100D1300E0200104C4C0E0C4B201C0F0120A15D03F
:100D2300F0D5F0EB020A651209990B02530C6958CE
:100D33000AD34C0ACF420C6D4F0C75440C75490A0B
:100D4300E8430C7B550BAC460C0A450B76470E412A
:100D5300500AD72D0ADB2E0AFE2B0ADF230AFC20BA
:100D63000E2A2A0A974800000AF6E541B4FF0375E4
:100D730041061209F1FC1209F1FD1209F1FE1209F3
:100D8300F1FF783702041F790AA2D5200314300536
:100D930009B910020404B9080104A2D520060250BF
:100DA30001042002689202B540005034C0E07F2065
:100DB3003003197F30A20272067205500F120DE341
:100DC300C202C206C205C2087F30800F300503E9A4
:100DD300C0E0120A2C300503D0E0F9D0E0B540CCD6
:100DE3003005177F30B9100C120A2C7F58300407D6
:100DF3007F788003B90803120A2C3002057F2D0285
:100E03000A2C7F202008F87F2B2006F322920280F1
:100E1300CF7F00B4070050052437F8E6FF22286E81
:100E2300756C6C2900D2011209F13001F8C2017806
:100E33004030D50108F6020A972D5043495812094C
:100E4300F12403B405004001E4900E3C93120A1D03
:100E5300743A120A1DD203754004020C69C20012CF
:100E630026EFEF700302116290007C740AF01229DE
:100E73007190000CEFF07844E6147003020F110434
:100E83006003021162E4FF122DCEEF600C7845E699
:100E930070071876017847800EE4FF122DDEEF60AD
:100EA3000A7845E6045401F6D2092290000CE0FFCB
:100EB30070030211627845E6FE701290008CE07DAB
:100EC3000070027D0190008CEDF0D20922EE6401E6
:100ED3006003021162EFB40116784CE6FC08E6FDEC
:100EE3007849E6240AFF18E436FE12287A8015783A
:100EF3004EE6FC08E6FD7849E624F6FF18E634FFE3
:100F0300FE1228B97848A60608A607D20922E4FFEC
:100F1300122DCEEF6009E47844F6D209D20A22E416
:100F2300FF122DDEEF60107847E67F0070027F012D
:100F33007847A607D2092290000CE0FF7003021144
:100F4300107847E6702EEFB4011618E62401FFE48B
:100F530033FE7C007D0A1206517846A60502110D68
:100F63007846E6FF70047F098003EF14FF7846A6F6
:100F73000702110D7846E6B40700400302110D90F5
:100F83000F89F8282873020F9E020FAE020FDD02AD
:100F930010110210450210740210B0784AE67F0067
:100FA30070027F01784AA60702110D90000CE07CC5
:100FB30000B401107D96784BE62401FFE433FE1262
:100FC300287A800F7D01784BE624FFFFE434FFFE8F
:100FD3001228B9784BA60702110D90000CE0B4015A
:100FE300137C0B7DB8784DE6240AFF18E436FE1215
:100FF300287A8015784EE6FC08E6FD784DE624F65F
:10100300FF18E634FFFE1228B9784C0210FF900057
:101013000CE0B40116784CE6FC08E6FD784FE624B4
:101023000AFF18E436FE12287A80127CFE7D70785F
:101033004FE624F6FF18E634FFFE1228B9784E0275
:1010430010FF90000CE07C00B401107D1E7850E688
:101053002401FFE433FE12287A800F7D007850E6E6
:1010630024FFFFE434FFFE1228B97850A6070211CB
:101073000D90000CE0B401187C007D637851E6FF0D
:101083003395E0FEEF2401FFE43EFE12287A801739
:101093007CFF7D9D7851E6FF3395E0FEEF24FFFF53
:1010A300EE34FFFE1228B97851A607805D90000C3C
:1010B300E0B401267852E6FE08E6FFD394FFEE641F
:1010C30080947F40127C047D4CEF240AFFE43EFEB3
:1010D30012287A78528025E4802B7852E6FE08E6BF
:1010E300FFD39400EE6480948040187C007D00EF71
:1010F30024F6FFEE34FFFE1228B97852A60608A69E
:1011030007800774FF7852F608F6D209227846E67C
:101113006409704B08E660477856E6702E7F01122B
:101123002B17E47BF47A01F9F8D31208E050307FEF
:1011330002122B17E47BF47A01F9F8D31208E0507A
:101143001E78567601122AC5D209227F01122DAECE
:10115300EF70087F02122DAEEF6004E47856F6229A
:101163001514A814EDF2151415141514A814EBF2A4
:1011730008EAF208E9F2E51424FAF514F812097002
:1011830000000000E5142404F8E4F2E5142409F84F
:10119300E214FFE5142404F8E2C39F400302133969
:1011A300E5142405F8E4F2E5142409F8E214FFE554
:1011B300142404F8E2FEC3EF9EFFE5142405F8E2CD
:1011C300C39F400302132EE5142405F8E2FD240116
:1011D300FFE433FEEF25E0FFEE33FEE5142406F8CB
:1011E300E2FB08E2FA08E2F98F828E83120733FFEB
:1011F300AEF075F002EDA4F58285F083120733D3C8
:101203009FE5F09E5003021323E5142406F8E2FB46
:1012130008E2FA08E2F9E5142405F8E2FF75F002A2
:10122300A4F582E92582F9EA35F0FAC003C002C0C9
:1012330001120708FDACF0EF2401FFE433FEEF25B4
:10124300E0FFEE33FEE5142406F8E2FB08E2FA08B9
:10125300E2F98F828E83120733FFEC65F0FEED6FA8
:10126300FFD001D002D003EE8FF01207B8E51424AB
:1012730005F8E2FD2401FFE433FEEF25E0FFEE3342
:10128300FEE5142406F8E2FB08E2FA08E2F98F828D
:101293008E83120733FFAEF075F002EDA4F582855D
:1012A300F083120733FDE5F06EFCED6FFDE51424CA
:1012B30005F8E22401FFE433FEEF25E0FFEE338F70
:1012C30082F583EC8DF01207D7E5142405F8E2FFCD
:1012D30075F002A4F582E92582F9EA35F0FAC00334
:1012E300C002C001120708FDACF0EF2401FFE43394
:1012F300FEEF25E0FFEE33FEE5142406F8E2FB08DB
:10130300E2FA08E2F98F828E83120733FFEC65F06D
:10131300FEED6FFFD001D002D003EE8FF01207B8BD
:10132300E5142405F8E204F20211AAE5142404F8F2
:10133300E204F202118EE5142404F87402F2E514B7
:101343002409F8E224FEFFE5142404F8E2C39F50C5
:1013530059A814C000E2FC08E2FD08E2FE08E2FF1F
:10136300C006C007E5142406F8E2FB08E2FA08E227
:10137300F9E5142404F8E275F002A4F58285F083FC
:10138300120733AEF0FBAA06E4F9F8D007D006EF54
:101393002BFFEE3AFEE93DFDE83CFCD00012093399
:1013A300E5142404F8E204F28094E5142409F8E235
:1013B30024FCFFE434FFFE3395E0FDFCC004A905E3
:1013C300AA06AB07A814E2FC08E2FD08E2FE08E265
:1013D300FFD000120840E514240AF5142220090363
:1013E3000215CE7BFF7A2E79797844E690001CF0C3
:1013F30008E6A3F008E6A3F008E6A3F0E4FF121F53
:10140300137BFF7A2E79A87848E6FF08E690001C44
:10141300CFF0A3EFF008E6A3F008E6A3F008E6FF99
:1014230008E6A3CFF0A3EFF008E6FF08E6A3CFF0AA
:10143300A3EFF0E4FF121F137BFF7A2E79DF7850BE
:10144300E690001CF008E6A3F008E6FF08E6A3CF49
:10145300F0A3EFF07856E6A3F090008CE090002123
:10146300F0E4FF121F137844E6146067046003027C
:1014730015CC7845E61460560460030215CC900041
:101483008EE0FEA3E0FFEE3395E0FDFC7B007A8067
:1014930079FF78FFC31208E07006122D5B0215CCAA
:1014A30090008EE0FEA3E0FFC39470EE6480947E10
:1014B300400BD3EF94B8EE6480948B4006122D72E8
:1014C3000215CC90008EE0FEA3E0FF02155578488C
:1014D3000215807847E6700918E6FF122C340215CE
:1014E300CC7846E6B40A0040030215CC9014F6F813
:1014F30028287302151402153502153D0215410201
:10150300154502154D02155A02158E021593021543
:101513009B784AE6902FCA700B93FDFFE493FB90F0
:101523002FD5800AE493FDFFE493FB902FD7E49338
:101533008040784BE6FF7E008018784C803F784EE1
:10154300803B7850E6FF7E0080497851E6FF339573
:10155300E0FE12195980727852B6FF1F08B6FF1BBE
:10156300902FCAE493FF902FD9E493FD902FD6E4F4
:1015730093FB900010F0122C72804E7852E6FE0816
:10158300E6FF7C007D0A1206A68008E4FFFE8003C6
:10159300E4FFFE121D6A8031122CDD7856E66029C5
:1015A30090000C7403F090000CE0FF14F0EF601651
:1015B300122E157E007FC812279A122CDD7E017F22
:1015C300F412279A80E0122E09C209227844E670A9
:1015D3004708E6600302170190008EE0FEA3E0FFD8
:1015E300C39470EE6480947E400BD3EF94B8EE64A2
:1015F30080948B401D122E717BFF7A2F79449000CB
:101603008EE0FFA3E090001CCFF0A3EFF0E4FF0215
:101613001F1390008CE07003021701784AE6FF70F5
:101623004C90008DE0FE701C7848E6FC08E6FDC394
:1016330090008FE09DEC6480F890008EE0648098C9
:101643004002804FEE64017079784BE6FDC3784920
:10165300E69DFD18E69400FCD390008FE09DEC64BA
:1016630080F890008EE064809850578050EF6401BA
:10167300705090008DE0FF70227848E6FC08E6FD8C
:10168300D390008FE09DEC6480F890008EE064803E
:1016930098500890008D7401F08027EFB4012378EF
:1016A3004BE6784926FFE41836FEC390008FE09F8F
:1016B300EE6480F890008EE06480984005E490002A
:1016C3008DF07BFF7A2F796B90008DE090001CF0FA
:1016D30090008EE0FFA3E090001DCFF0A3EFF07821
:1016E30048E6FF08E6A3CFF0A3EFF0784BE6A3F0BC
:1016F300E4FF121F1390008DE06003022E6E122E82
:1017030071223E9248DA3ECCCCCD3F2AAAAB4000B0
:1017130000003F8000003F9837F03FB504F33FD708
:1017230044FC3E3172173EB172173F0515913EDE00
:101733005BD9D2008002C200EDD2E7F8CD33EC339F
:1017430004700BBD800592D502039802038E40FB03
:10175300D31460F2F5F07C3FEE7A00C39496C894FC
:101763008B40230AC89469C8941A401A0AC894681B
:10177300C8941F40110AC8945AC89425400805F01C
:101783007A00CDC2E7CDC0F08C228D238E248F2525
:10179300EA2323C0E02415F582E43417F583120904
:1017A3001712004DECC0E0EDC0E0EEC0E0EFC0E08A
:1017B300120907A822A923AA24AB25120049D0E0C5
:1017C300FBD0E0FAD0E0F9D0E0B2E7F81202478CA0
:1017D300228D238E248F2590170574031203A3A84B
:1017E30022A923AA24AB2512013ED0E0600F2421B5
:1017F300F582E43417F58312091712004D8C228DFC
:10180300238E248F25D0E0C3947FFDE49400FC1243
:1018130002E97B187A727931783F12013EA822A936
:1018230023AA24AB2512004D30000B7BD97A5B79B8
:10183300DE783E12013E2215141514A814EEF208A8
:10184300EFF2E51424FAF5142406F8E2FE08E2FFA9
:10185300C394E8EE940340247C037DE812065112FE
:10186300279AE5142406F8C000E2FE08E2FF7C0391
:101873007DE8120651D000ECF208EDF2AF13AE1280
:10188300AD11AC10A814120933122BD0E5142404A3
:10189300F8EEF208EFF2E5142404F8E2FE08E2FFA2
:1018A300C374E79FFD74039EFCE5142406F8E2FA73
:1018B30008E2FBD39DEA9C500FE5142404F808E2E8
:1018C3002BF218E23AF28041C3E49FFFE49EFEE567
:1018D300142406F8C308E29FFF18E29ECF2418CF12
:1018E30034FCF8E5142404C8F208EFF2A814E2FC6F
:1018F30008E2FD08E2FE08E22401FFE43EFEE43DC7
:10190300FDE43CFCA814120933A814E2FC08E2FD30
:1019130008E2FE08E2FFAB13AA12A911A810C31232
:1019230008F640E5A814E2FC08E2FD08E2FE08E23E
:10193300FFAB13AA12A911A8101208F67011122BEB
:10194300D0E5142404F9D309E39F19E39E50BAE5C3
:10195300142408F5142290000DEEF0A3EFF0C3EE6B
:10196300648094807F0140027F0090000FEFF0902D
:10197300000DE0FEA3E0FF122E2D90000DEEF0A36C
:10198300EFF090000DE0FEA3E0FF7C007D0A12065D
:10199300A6AB07AA0690000DE0FEA3E0FF7C007D46
:1019A3000A1206A6900010EDF0122B65C3EB9464A7
:1019B300EA940040327C007D64AF03AE021206510C
:1019C300747D2FF58274303EF583E4939000BBF071
:1019D3007C007D64AF03AE021206517E007F0ACF06
:1019E300CDCFCECCCE8020C3EB940AEA9400403F07
:1019F30090000FE0600990308FE4939000BBF07C7F
:101A0300007D0AAF03AE02120651747D2FF5827476
:101A1300303EF583E4939000BCF07C007D0AAF0375
:101A2300AE02120651747D2DF58274303C801790FE
:101A3300000FE0600990308FE4939000BCF0747D58
:101A43002BF58274303AF583E493FF90308EE49360
:101A5300FEEF4E9000BDF0900010E090307D93902B
:101A630000BEF07B017A0079BB0226918B228A2388
:101A73008924E94A4B7003021B7CE47857F67857B4
:101A8300E6FFC394065030EF75F008A42451F582A5
:101A9300E43400F583E0FBA3E0FAA3E0F9E5228553
:101AA30023838524826B7008E965827003EA65836A
:101AB300600578570680C7EF64067003021B7C122B
:101AC30027EA7857E62401FFE433FEC3EF9406EEDA
:101AD300648094804003021B7CE6FF75F008A42415
:101AE30054F582E43400F583E0FEEF75F008A42496
:101AF3004CF582E43400F583EEF0E6FF75F008A4BC
:101B03002455F582E43400F583E0FCA3E0FDEF7592
:101B1300F008A4244DF582E43400F583ECF0A3ED42
:101B2300F0E6FF75F008A42457F582E43400F5834A
:101B3300E0FCA3E0FDEF75F008A4244FF582E43444
:101B430000F583ECF0A3EDF0E6FF75F008A424594B
:101B5300F582E43400F583E0FBA3E0FAA3E0F9EFB8
:101B630075F008A42451F582E43400F583EBF0A367
:101B7300EAF0A3E9F006021AC522EF4E7003021C35
:101B8300809000B5E07002A3E07003021C80CDEFEB
:101B9300CDCCEECCED24FCFDEC34FFFC75220075BE
:101BA30023B3852382852283E0FAA3E08A24F525E3
:101BB30045246011D3E5259FE5249E500885242202
:101BC30085252380DDE5254524604A8D828C83A30A
:101BD300A3E0FAA3E02FFFEA3EFEEF65257003EED4
:101BE30065247031852582852483A3A3E0FEA3E0C9
:101BF3002404FFE43E8D828C83A3A38FF01206DCC2
:101C0300852582852483E0FFA3E08D828C83CFF03A
:101C1300A3EFF0800B8D828C83E524F0A3E525F000
:101C2300852382852283A3A3E0FEA3E02523FFEE81
:101C33003522FEEF2404FFE43EFEEF6D7002EE6CEE
:101C430070308D828C83A3A3E0FEA3E02404FFE421
:101C53003E852382852283A3A38FF01206DC8D8227
:101C63008C83E0FFA3E0852382852283CFF0A3EF5B
:101C7300F022852382852283ECF0A3EDF022E4FF9A
:101C830090000DE0FBA3E0FAA3E0F9120592FEB485
:101C930001037480FF20017C90000174011205D8B8
:101CA300900002E475F00112076BEE703690000DA0
:101CB300E0FBA3E0FAA3E0F99000011205AB640294
:101CC3006003021D690412060B90000DE0FBA3E004
:101CD300FAA3E0F9900002E475F0021207D7EF448B
:101CE300A0FF2290000DE0FBA3E0FAA3E0F990002F
:101CF300011205ABB4640C90000174F61205D8EF21
:101D03004408FF90000212073364C845F07057EF90
:101D13004402FF2290000DE0FBA3E0FAA3E0F912D6
:101D230005926401702EE412060B90000DE0FBA3F4
:101D3300E0FAA3E0F9900001E412061DEF4410FF5E
:101D4300900002120733C39464E5F094005017EF38
:101D53004401FF2290000DE0FBA3E0FAA3E0F99019
:101D63000001E412061D22AB07AA06C3EA648094AD
:101D7300807F0140027F0090000DEFF0AF03AE02C1
:101D8300122E2DAA06AB07122B65C3EB9464EA64EB
:101D9300809480401B7C007D64AF03AE021206A6D4
:101DA300747D2FF58274303EF583E4939000BCF08C
:101DB300C3EB940AEA6480948040287C007D64AF7E
:101DC30003AE021206A67E007F0ACFCDCFCECCCEC5
:101DD3001206A6747D2FF58274303EF583E493904A
:101DE30000BDF07C007D0AAF03AE021206A6747D2F
:101DF3002DF58274303CF583E4939000BEF090009F
:101E03000DE06032C3EB9464EA64809480400B90ED
:101E1300308FE4939000BBF0801CC3EB940AEA6418
:101E230080948090308F4008E4939000BCF080064B
:101E3300E4939000BDF07B017A0079BB0226919078
:101E4300000E12093F000000007F061228F89000E0
:101E530016EEF0A3EFF07BFF7A30793E90001CEE94
:101E6300F0A3EFF0E4FF121F13900016E0FEA3E0CF
:101E7300FFD39401EE94004008E4B50709EEB404DF
:101E8300057E807F0022900016E0FEA3E0FFC3E4FE
:101E93009FFF74049EFE7C007D0A12063FAC06ADD4
:101EA30007E41202E9C004C005C006C0079000168B
:101EB300E0FCA3E0FDE41202E9A804A905AA06AB2D
:101EC30007D007D006D005D00412024790000E12A7
:101ED300092790000EE0FCA3E0FDA3E0FEA3E0FFD2
:101EE30012236C9000121209277F0A7ED77DA37CF0
:101EF3003B900012E0F8A3E0F9A3E0FAA3E0FB12A1
:101F0300004DE4FBFA79C8784212013E1203222203
:101F1300900018EFF0A3EBF0A3EAF0A3E9F07D0142
:101F23007C007FA07E00122A6E900044EEF0A3EFA7
:101F3300F04E70097A2F79DC1225CB80FE90004693
:101F43007401F0A37400F0A3741CF0900044E0FE4D
:101F5300A3E0AA06F97B01C003C002900019E0FBCD
:101F6300A3E0FAA3E08B228A23F524900046E0FB4A
:101F7300A3E0FAA3E08B258A26F527D002D003122B
:101F83002A40900046E4F0A3F0A3F0C3EE648094EB
:101F930080400AEF94A0EE6480948040097A3079FF
:101FA300051225CB80FE900018E0FF900044E0FC72
:101FB300A3E0AA04F97B011225D2900018E0FF7D6B
:101FC3000A122E21900044E0FEA3E0FF021B7D8E47
:101FD300228F238C248D258B268A278928E4785702
:101FE300F67857E6FFC39406501CEF75F008A42457
:101FF30051F582E43400F583E0FBA3E0FAA3E04A61
:102003004B60030680DBEF6406606EE52345227FA9
:102013000070027F017857E6FE75F008A4244CF5A2
:1020230082E43400F583EFF0E52345226006AC2219
:10203300AD238004AC24AD25EE75F008A4244DF542
:1020430082E43400F583ECF0A3EDF0EE75F008A420
:10205300244FF582E43400F583E524F0A3E525F06D
:10206300EE75F008A42451F582E43400F583E526E7
:10207300F0A3E527F0A3E528F022121E4290000CFE
:10208300EEF0A3EFF0EE3395E0FDFC7B007A807970
:10209300FF78FFC31208E090000C700AE0FFA3E092
:1020A30090008ECF801CE0FEA3E0FF7C007D0A122F
:1020B30006A67851E6FD3395E0FCEF2DFFEE3C904C
:1020C300008EF0A3EFF07852E6FE08E6FFF470020C
:1020D300EEF46016C390008FE09FEE6480F89000EA
:1020E3008EE06480984003122E097BFF7A2F7918C3
:1020F30090000CE0FFA3E090001CCFF0A3EFF09062
:10210300008EE0FFA3E090001ECFF0A3EFF0E4FF0A
:10211300121F13D209228E268F277E007FB38F8250
:102123008E83E0FCA3E0FD4C7003FEFF228D828CC6
:1021330083A3A3E0FAA3E0FBC39527EA95265008FF
:10214300CEECCECFEDCF80D6C3EB9527F529EA951C
:1021530026F528C3E5299410E528940050198D82AB
:102163008C83E0FBA3E08F828E83CBF0A3EBF0EDB7
:102173002404FFE43CFE2274FC2529F52974FF3571
:1021830028F5288D828C83A3A3F0A3E529F0ED2401
:1021930004FFE43CFEEF2529FFEE3528FE8F82F590
:1021A30083A3A3E526F0A3E527F0EF2404FFE43E91
:1021B300FE2290000CECF0A3EDF0900010EBF0A3E6
:1021C300EAF0A3E9F0E4A3F0A3F0D3ED94F4EC94E4
:1021D3000140037F0022900013E0FEA3E0FF122DD5
:1021E30043900013E0FEA3E0FF7D01120026E0040C
:1021F300F07006900013E004F0E490000EF0A3F0FA
:1022030090000CE0FEA3E0FFC390000FE09F90005E
:102213000EE09E5034900013E475F0011206F2AF05
:10222300F0FE900010E0FBA3E475F0011206F2A9A2
:10223300F0FA120592FD12002690000FE004F070F0
:10224300BF90000EE004F080B77F0122E4785BF6D4
:10225300785BE6FFC3940640030222DFEF75F008C4
:10226300A4244DF582E43400F583E0FEA3E04E6040
:1022730065E6FF75F008A4244DF582E43400F58388
:1022830074FFF5F01206DCEF75F008A4244DF58217
:10229300E43400F583E0FEA3E04E703A785BE6FF9A
:1022A30075F008A4244FF582E43400F583E0FCA321
:1022B300E0FDEF75F008A4244DF582E43400F583C6
:1022C300ECF0A3EDF0E675F008A4244CF582E434B9
:1022D30000F5837401F0785B0602225322787FE4D1
:1022E300F6D8FD75815B022327022D9DE493A3F8A5
:1022F300E493A34003F68001F208DFF48029E4931A
:10230300A3F85407240CC8C333C4540F4420C88310
:102313004004F456800146F6DFE4800B0102040812
:1023230010204080902C14E47E019360BCA3FF54E2
:102333003F30E509541FFEE493A360010ECF54C060
:1023430025E060A840B8E493A3FAE493A3F8E493E8
:10235300A3C8C582C8CAC583CAF0A3C8C582C8CAF0
:10236300C583CADFE9DEE780BE7800120933E4FBE8
:10237300FA79C87842C0007800E2FC08E2FD08E27E
:10238300FE08E2FFD0001202471217397B007AE001
:102393007976784512024778041209337F0F7ECF8E
:1023A3007D5B7C3B7804E2FB08E2F908E2FA08E291
:1023B300CBF812004D78041209337804E2FB08E2EB
:1023C300F908E2FA08E2CBF8E4FFFE7D807C3F12D5
:1023D300024778041209337F337E937D887CC37868
:1023E30004E2FB08E2F908E2FA08E2CBF802004D46
:1023F3007815E6FF75F008A4244CF582E43400F563
:1024030083E06401705BEF75F008A42451F582E466
:102413003400F583A3E0FAA3E0F91209BF7815E6C7
:10242300FF75F008A4244CF582E43400F583E4F04E
:10243300EF75F008A4244FF582E43400F583E0FE41
:10244300A3E04E701CE675F008A42451F582E43431
:1024530000F583E0FBA3E0FAA3E0F9121A6F781505
:1024630016781506E6C394064002E4F622E478449F
:10247300F608F608F608F6122AC5E47856F6900030
:102483008E7480F0A3E4F090008CF0A3F07B017ACB
:1024930000797D7D0FFC1224EBEF604B90007DE013
:1024A300FEA3E0FF7848A60608A607A3E008F6A364
:1024B300E008F6A3E0FEA3E0FF08A60608A607A32C
:1024C300E0FEA3E0FF08A60608A607A3E008F6A31C
:1024D300E008F6A3E0FEA3E0FF08A60608A607A30C
:1024E300E008F6A3E008F62290000DEBF0A3EAF073
:1024F300A3E9F0E4A3F0A3F0D3ED94F4EC9401404A
:10250300037F0022900010E0FEA3E0FF122CA9EF4E
:10251300640160037F0022900011E004F0700690D4
:102523000010E004F0E490000CF090000CE0C39D78
:10253300E49C502C900010E475F0011206F2AFF009
:10254300FE122CA990000DE0FBA3E475F001120626
:10255300F2A9F0FAEF12060B90000CE004F080CA27
:102563007F01227BFF7A1379E07D647C00E4FFFE28
:10257300121FD27BFF7A0E79607D0A7C007F0B7E6F
:1025830000121FD27BFF7A20797D7DE87C037F0ECA
:102593007E00121FD27BFF7A1579CF7DC87C007F26
:1025A3000F7E00121FD27BFF7A26792F7DE87C03F2
:1025B3007F127E00121FD27BFF7A2A79EE7DE87CA0
:1025C300037F137E00021FD2900018E0FF7BFF9071
:1025D3000049EBF0A3EAF0A3E9F0EF70279000497C
:1025E300E0FBA3E0FAA3E0F9120592603E900049F4
:1025F300A3E475F0011206F2A9F0FA120592FF1294
:102603002E4D80D9900049E0FBA3E0FAA3E0F91234
:1026130005926017900049A3E475F0011206F2A930
:10262300F0FA120592FF122E5680D922300A5E125A
:102633002CC3EF60587848E6FF08E690007DCFF0A2
:10264300A3EFF008E6A3F008E6A3F008E6FF08E628
:10265300A3CFF0A3EFF008E6FF08E6A3CFF0A3EFC4
:10266300F008E6A3F008E6A3F008E6FF08E6A3CF28
:10267300F0A3EFF008E6A3F008E6A3F0E4A3F07BF1
:10268300017A00797D7D0FFC1221B5C20A229000E8
:1026930011EBF0A3EAF0A3E9F0120592FD7FC0125B
:1026A3002D17900011E0FBA3E0FAA3E0F9900001DD
:1026B3001205ABFD7FC2122D17900011E0FBA3E0C2
:1026C300FAA3E0F99000021205ABFD7FC4122D17A7
:1026D300900011E0FBA3E0FAA3E0F99000031205D8
:1026E300ABFD7FC6122D177F8A020003A2B29201AF
:1026F30090000D7401F0A37400F0A374A4F0121CF5
:10270300819000B0EFF0A2B3920190000D7401F03C
:10271300A37400F0A374A8F0121C819000B1EFF031
:10272300A2B4920190000D7401F0A37400F0A3749D
:10273300ACF0121C819000B2EFF0122CC3EF7F00BB
:1027430070027F012243B13C53B2C3D2B4D2B3D29D
:10275300B2E4FFEF25E025E024A4F582E43400F59C
:1027630083E4F0EF25E025E024A5F582E43400F5C9
:1027730083E4F0EF25E025E024A6F582E43400F5B8
:1027830083E4F0A3F074B02FF582E43400F583E41E
:10279300F00FEFB403BD2215141514A814EEF208BC
:1027A300EFF2E51424FCF5142404F8E2FE08E2FF3A
:1027B300EF2513FFEE3512FEE43511FDE43510FC71
:1027C300A814120933A814E2FC08E2FD08E2FE088B
:1027D300E2FFAB13AA12A911A810C31208F640E531
:1027E300E5142406F51422EFC394065048EF75F060
:1027F30008A4244CF582E43400F583E4F0EF75F08B
:1028030008A4244DF582E43400F583E4F0A3F0EF4B
:1028130075F008A4244FF582E43400F583E4F0A3B3
:10282300F0EF75F008A42451F582E43400F583E455
:10283300F0A3F0A3F02253917F53927F53C9CF5358
:10284300CACFD2CCD297D2CD7F021200037F4412DB
:102853000003903091E493FD7FC0122D177FC212C5
:102863002D117FC4122D11903092E493FD7FC61277
:102873002D177F8A02000315141514A814ECF2080F
:10288300EDF215141514A814EEF208EFF2A81408CB
:1028930008E2FE08E2FFA814E2FC08E2FDC39FEE93
:1028A3006480F8EC6480985006AE04AF058000E5C0
:1028B300142404F5142215141514A814ECF208EDCD
:1028C300F215141514A814EEF208EFF2A814080870
:1028D300E2FE08E2FFA814E2FC08E2FDD39FEE64E7
:1028E30080F8EC6480984006AE04AF058000E514E0
:1028F3002404F514227800EFF2E408F27800E2FFF2
:10290300122BF308E225E02490F582E43400F583EA
:10291300EEF0A3EFF07E007F0A12183A7801E2048A
:10292300F2E2C3940A40D57D0A7B017A00799002D2
:102933001163EF4E7008FE7F01ED1D70011C9000C6
:10294300B3EEF0A3EFF0A3ECF0A3EDF09000B3E04F
:10295300FEA3E0FFF5828E83E4F0A3F0ED24FCFDFB
:10296300EC34FF8F828E83A3A3F0A3EDF0227F01CB
:10297300122DDEEF70087F01122DBEEF600B7F0278
:10298300122E39EF60037F01227F02122DDEEF70DA
:10299300087F02122DBEEF600B7F01122E39EF600C
:1029A300037FFF227F0022C0E0C0F0C083C082C04B
:1029B300D075D008AF13AE12AD11AC10EF2401F5F2
:1029C30013E43EF512E43DF511E43CF510300C033D
:1029D30012224FD0D0D082D083D0F0D0E0324391B6
:1029E300405392BF90FEA8743FF075DE2F75BC80F4
:1029F3007E007F0112279AE490000CF07F061228D4
:102A0300F890000CE004F0E0C3940540EF22780155
:102A1300EFF2E408F2C2CC7801E230E004D2CD80D8
:102A230002C2CD7E007F0112183AD2CC7801E2C3F4
:102A330013F208E204F2E2C3940840D92285222B60
:102A430085232C85242DEBC525FBEAC526FAE9C58C
:102A530027F97F09782E120592F60809E970010A11
:102A6300DFF4AB25AA26A927020A4D8E228F231253
:102A7300063F8E228F231221198E248F25EF4E704D
:102A830003FEFF22AE22AF237D00AA24A9257B01EA
:102A93001209C5AE24AF2522C0E0C0D075D018E519
:102AA3009A30E00F539AFE7809E59BF2E59A5404B5
:102AB300780BF2E59A30E105539AFDC20BD0D0D0E2
:102AC300E03278487601087618E408F608760108BB
:102AD30076090876C40876FF08763808F608F6748F
:102AE300FF08F608F6E408F608F62290007CE0D327
:102AF30094004003E014F090007CE070167844E604
:102B0300700408E6600DE47844F608F67847F6D2D8
:102B130009D20A22AE0712000EEF20E70774FFFF67
:102B2300FEFDFC22EE25E025E024A6F582E4340038
:102B3300F583E0FEA3E0FFE4FCFD22EFB40A077493
:102B43000D122B49740A309811A899B8130CC29826
:102B53003098FDA899C298B811F63099FDC299F53D
:102B630099227F0590308DE493FEEFFD3395E0FCD1
:102B730074BB2DF58274003CF583EEF01FC3EF6444
:102B830080948050DF22C0E0C0D075D01830980EFA
:102B9300C2987808E599F2A29AE433780AF2309958
:102BA30004C299C20BD0D0D0E03243BA80438E80A6
:102BB300D2AF122DEE122CF7122D2A12283912271A
:102BC30048122E44122E771229E1022E5F7857768F
:102BD300D108762008760008760CAF8CEFFEAD8A1C
:102BE300EDC39420FFEE94D1FE7D0C7C00020651D0
:102BF30053070F53BCF0EF42BC43BC40000000003E
:102C0300E5BC30E5FB53BCDFAFBDEFFEADBEEDFF72
:102C13002241007C0AC189C10A4600BB00000000B2
:102C23000000011500004800B30000000000000090
:102C330000AB07122B6590309DE4939000BBF0EB43
:102C430090307D939000BCF07B017A0079BB022623
:102C530091E4F513F512F511F510C20C438E805370
:102C630089F0758A20758CD1D2A9D2AFD28C2290EB
:102C730000BBEFF0A3EDF0A3EBF0900010E09000A9
:102C8300BEF07B017A0079BB022691122BAD122490
:102C9300707E017FF412279A122E097BFF7A2F7917
:102CA300A0E4FF021F1375C78075F50C75C5018F6E
:102CB300C4EEF5C375C65A75C6A500AFC2022DFC96
:102CC300E4FF74B02FF582E43400F583E060037F02
:102CD30000220FEFB403EB7F0122122B659000BC9F
:102CE3007458F0A37418F0A37450F07B017A007940
:102CF300BB0226917E017F007D007B017A02790071
:102D03001209C57E027F007D007C010229359030C7
:102D130090E493FD7800EDF2C297122A117800E255
:102D2300FF122A11D29722759850759A1075D7E61B
:102D330075D6FF438E15D2AC43AF01D2AFC20B227F
:102D430075C78075F50C75C5038FC4EEF5C375C6DD
:102D53005A75C6A500022DFC122B6590309BE49397
:102D63009000BCF0A3F07B017A0079BB022691129C
:102D73002B6590309AE4939000BCF0A3F07B017A2A
:102D83000079BB022691E47857F67857E6FFC3949F
:102D93000650061227EA0680F122122E68122C8EA4
:102DA300122566122E741223F380FB12000EEF30ED
:102DB300E70630E4037F01227F002212000EEF308A
:102DC300E70630E3037F01227F002212000EEF307B
:102DD300E70630E1037F01227F002212000EEF306D
:102DE300E70630E0037F01227F00227E007F00128E
:102DF300183A7E007F0002279AE4F5C7F5C5F5C6A9
:102E030075C380F5C422D2907E007F1412279AC224
:102E13009022122B657B017A0079BB022691EFAFDA
:102E2300057003022E4D122E5622EE30E707C3E43F
:102E33009FFFE49EFE2212000EEF7F0070027F01CF
:102E4300225391FE439201C29022200BFDD20BEF3D
:102E5300F59922200BFDD20BEFF59B225391FD43F5
:102E63009202C29122122D89022C54D29122C29134
:102E730022D20C22002273656753686F775F6D65FA
:102E83006E753A207B6D3D2562752C20726D3D2554
:102E930062752C20736D3D2562752C20736D763D14
:102EA3002562757D0073656753686F775F70617224
:102EB300616D5F313A207B74743D25642C20703042
:102EC3003D2562752C2070313D2562752C207032B2
:102ED3003D25642C2070333D25647D007365675365
:102EE300686F775F706172616D5F323A207B703417
:102EF3003D2562752C2070353D2562642C2070368B
:102F03003D2568642C2070393D2562752C20733D66
:102F13002562757D005B67657454656D70657261CC
:102F2300747572655D2073616D706C6554656D7049
:102F33003D25642C206375727254656D703D256464
:102F4300005B72656C6179576F726B5D20696C6CA5
:102F53006567616C20706172616D212063757272A7
:102F630054656D703D2564005B72656C6179576FC4
:102F7300726B5D20776F726B3D2562752C206375D4
:102F8300727254656D703D25642C2074617267659F
:102F9300743D25642C2070313D256275003D3D3D17
:102FA3003D20736574757020636F6D706C65746517
:102FB30021203D3D3D3D003F065B4F666D7D077F14
:102FC3006F777C395E797100804009390F231C6467
:102FD3000800397176385C73704E6F7420656E6FBC
:102FE300756768206D656D6F7279207370616365B5
:102FF30020666F72205354524255465F4C454E2E05
:103003000A005354524255465F4C454E20746F6F2D
:1030130020736D616C6C2E0A003F065B4F666D7DFD
:10302300077F6F777C395E797100804009390F2300
:103033001C640800397176385C73705B4253505FCF
:103043004E54435F47657454656D705D20616463DE
:103053005F76616C3D2575003F065B4F666D7D07AE
:103063007F6F777C395E797100804009390F231CAB
:10307300640800397176385C73703F065B4F666D88
:103083007D077F6F777C395E797100804009390F46
:0C309300231C640800397176385C7370EF
:00000001FF
